{
  "contractName": "Factory",
  "abi": [
    {
      "constant": true,
      "inputs": [],
      "name": "owner",
      "outputs": [
        {
          "name": "",
          "type": "address"
        }
      ],
      "payable": false,
      "stateMutability": "view",
      "type": "function"
    },
    {
      "constant": true,
      "inputs": [],
      "name": "receiverCount",
      "outputs": [
        {
          "name": "",
          "type": "uint256"
        }
      ],
      "payable": false,
      "stateMutability": "view",
      "type": "function"
    },
    {
      "constant": true,
      "inputs": [
        {
          "name": "",
          "type": "uint256"
        }
      ],
      "name": "receiversMap",
      "outputs": [
        {
          "name": "",
          "type": "address"
        }
      ],
      "payable": false,
      "stateMutability": "view",
      "type": "function"
    },
    {
      "inputs": [],
      "payable": false,
      "stateMutability": "nonpayable",
      "type": "constructor"
    },
    {
      "constant": false,
      "inputs": [
        {
          "name": "newOwner",
          "type": "address"
        }
      ],
      "name": "transfer",
      "outputs": [],
      "payable": false,
      "stateMutability": "nonpayable",
      "type": "function"
    },
    {
      "constant": false,
      "inputs": [
        {
          "name": "number",
          "type": "uint8"
        }
      ],
      "name": "createReceivers",
      "outputs": [],
      "payable": false,
      "stateMutability": "nonpayable",
      "type": "function"
    },
    {
      "constant": false,
      "inputs": [
        {
          "name": "ID",
          "type": "uint256"
        },
        {
          "name": "tracker",
          "type": "address"
        },
        {
          "name": "amount",
          "type": "uint256"
        },
        {
          "name": "receiver",
          "type": "address"
        }
      ],
      "name": "sendFundsFromReceiverTo",
      "outputs": [
        {
          "name": "",
          "type": "bool"
        }
      ],
      "payable": false,
      "stateMutability": "nonpayable",
      "type": "function"
    },
    {
      "constant": false,
      "inputs": [
        {
          "name": "tracker",
          "type": "address"
        },
        {
          "name": "receiver",
          "type": "address"
        },
        {
          "name": "contractAddresses",
          "type": "address[]"
        },
        {
          "name": "amounts",
          "type": "uint256[]"
        }
      ],
      "name": "batchCollect",
      "outputs": [],
      "payable": false,
      "stateMutability": "nonpayable",
      "type": "function"
    }
  ],
  "bytecode": "0x6080604052600060025534801561001557600080fd5b50336000806101000a81548173ffffffffffffffffffffffffffffffffffffffff021916908373ffffffffffffffffffffffffffffffffffffffff160217905550610d19806100656000396000f300608060405260043610610083576000357c0100000000000000000000000000000000000000000000000000000000900463ffffffff1680630e2659d1146100885780631a69523014610171578063457f4fa2146101b4578063593b06fe146102435780638da5cb5b14610273578063983ef3ed146102ca578063ff5422f0146102f5575b600080fd5b34801561009457600080fd5b5061016f600480360381019080803573ffffffffffffffffffffffffffffffffffffffff169060200190929190803573ffffffffffffffffffffffffffffffffffffffff1690602001909291908035906020019082018035906020019080806020026020016040519081016040528093929190818152602001838360200280828437820191505050505050919291929080359060200190820180359060200190808060200260200160405190810160405280939291908181526020018383602002808284378201915050505050509192919290505050610362565b005b34801561017d57600080fd5b506101b2600480360381019080803573ffffffffffffffffffffffffffffffffffffffff169060200190929190505050610522565b005b3480156101c057600080fd5b5061022960048036038101908080359060200190929190803573ffffffffffffffffffffffffffffffffffffffff16906020019092919080359060200190929190803573ffffffffffffffffffffffffffffffffffffffff1690602001909291905050506105c0565b604051808215151515815260200191505060405180910390f35b34801561024f57600080fd5b50610271600480360381019080803560ff16906020019092919050505061076c565b005b34801561027f57600080fd5b50610288610871565b604051808273ffffffffffffffffffffffffffffffffffffffff1673ffffffffffffffffffffffffffffffffffffffff16815260200191505060405180910390f35b3480156102d657600080fd5b506102df610896565b6040518082815260200191505060405180910390f35b34801561030157600080fd5b506103206004803603810190808035906020019092919050505061089c565b604051808273ffffffffffffffffffffffffffffffffffffffff1673ffffffffffffffffffffffffffffffffffffffff16815260200191505060405180910390f35b60008060009054906101000a900473ffffffffffffffffffffffffffffffffffffffff1673ffffffffffffffffffffffffffffffffffffffff163373ffffffffffffffffffffffffffffffffffffffff161415156103bf57600080fd5b600090505b825181101561051b5782818151811015156103db57fe5b9060200190602002015173ffffffffffffffffffffffffffffffffffffffff166389d4e6cd86848481518110151561040f57fe5b90602001906020020151876040518463ffffffff167c0100000000000000000000000000000000000000000000000000000000028152600401808473ffffffffffffffffffffffffffffffffffffffff1673ffffffffffffffffffffffffffffffffffffffff1681526020018381526020018273ffffffffffffffffffffffffffffffffffffffff1673ffffffffffffffffffffffffffffffffffffffff1681526020019350505050602060405180830381600087803b1580156104d257600080fd5b505af11580156104e6573d6000803e3d6000fd5b505050506040513d60208110156104fc57600080fd5b81019080805190602001909291905050505080806001019150506103c4565b5050505050565b6000809054906101000a900473ffffffffffffffffffffffffffffffffffffffff1673ffffffffffffffffffffffffffffffffffffffff163373ffffffffffffffffffffffffffffffffffffffff1614151561057d57600080fd5b806000806101000a81548173ffffffffffffffffffffffffffffffffffffffff021916908373ffffffffffffffffffffffffffffffffffffffff16021790555050565b60008060009054906101000a900473ffffffffffffffffffffffffffffffffffffffff1673ffffffffffffffffffffffffffffffffffffffff163373ffffffffffffffffffffffffffffffffffffffff1614151561061d57600080fd5b6001600086815260200190815260200160002060009054906101000a900473ffffffffffffffffffffffffffffffffffffffff1673ffffffffffffffffffffffffffffffffffffffff166389d4e6cd8585856040518463ffffffff167c0100000000000000000000000000000000000000000000000000000000028152600401808473ffffffffffffffffffffffffffffffffffffffff1673ffffffffffffffffffffffffffffffffffffffff1681526020018381526020018273ffffffffffffffffffffffffffffffffffffffff1673ffffffffffffffffffffffffffffffffffffffff1681526020019350505050602060405180830381600087803b15801561072757600080fd5b505af115801561073b573d6000803e3d6000fd5b505050506040513d602081101561075157600080fd5b81019080805190602001909291905050509050949350505050565b60008060009054906101000a900473ffffffffffffffffffffffffffffffffffffffff1673ffffffffffffffffffffffffffffffffffffffff163373ffffffffffffffffffffffffffffffffffffffff161415156107c957600080fd5b600090505b8160ff168160ff16101561086d576107e46108cf565b604051809103906000f080158015610800573d6000803e3d6000fd5b5060016000600260008154600101919050819055815260200190815260200160002060006101000a81548173ffffffffffffffffffffffffffffffffffffffff021916908373ffffffffffffffffffffffffffffffffffffffff16021790555080806001019150506107ce565b5050565b6000809054906101000a900473ffffffffffffffffffffffffffffffffffffffff1681565b60025481565b60016020528060005260406000206000915054906101000a900473ffffffffffffffffffffffffffffffffffffffff1681565b60405161040e806108e0833901905600608060405234801561001057600080fd5b50336000806101000a81548173ffffffffffffffffffffffffffffffffffffffff021916908373ffffffffffffffffffffffffffffffffffffffff1602179055506103ae806100606000396000f300608060405260043610610057576000357c0100000000000000000000000000000000000000000000000000000000900463ffffffff1680631a6952301461005c57806389d4e6cd1461009f5780638da5cb5b14610124575b600080fd5b34801561006857600080fd5b5061009d600480360381019080803573ffffffffffffffffffffffffffffffffffffffff16906020019092919050505061017b565b005b3480156100ab57600080fd5b5061010a600480360381019080803573ffffffffffffffffffffffffffffffffffffffff16906020019092919080359060200190929190803573ffffffffffffffffffffffffffffffffffffffff169060200190929190505050610219565b604051808215151515815260200191505060405180910390f35b34801561013057600080fd5b5061013961035d565b604051808273ffffffffffffffffffffffffffffffffffffffff1673ffffffffffffffffffffffffffffffffffffffff16815260200191505060405180910390f35b6000809054906101000a900473ffffffffffffffffffffffffffffffffffffffff1673ffffffffffffffffffffffffffffffffffffffff163373ffffffffffffffffffffffffffffffffffffffff161415156101d657600080fd5b806000806101000a81548173ffffffffffffffffffffffffffffffffffffffff021916908373ffffffffffffffffffffffffffffffffffffffff16021790555050565b60008060009054906101000a900473ffffffffffffffffffffffffffffffffffffffff1673ffffffffffffffffffffffffffffffffffffffff163373ffffffffffffffffffffffffffffffffffffffff1614151561027657600080fd5b8373ffffffffffffffffffffffffffffffffffffffff1663a9059cbb83856040518363ffffffff167c0100000000000000000000000000000000000000000000000000000000028152600401808373ffffffffffffffffffffffffffffffffffffffff1673ffffffffffffffffffffffffffffffffffffffff16815260200182815260200192505050602060405180830381600087803b15801561031957600080fd5b505af115801561032d573d6000803e3d6000fd5b505050506040513d602081101561034357600080fd5b810190808051906020019092919050505090509392505050565b6000809054906101000a900473ffffffffffffffffffffffffffffffffffffffff16815600a165627a7a723058204c2f7503546640cfdc5eee816b83d1c3b407fdaaa98102049da3e8aa1dd787520029a165627a7a72305820f1b2e5f4b79b3f512078be5799c98b61296d3f2b5a45d23c0a8aa2a947f1e17c0029",
  "source": "pragma solidity ^0.4.25;\n\n/*\n    Just the interface so solidity can compile properly\n    We could skip this if we use generic call creation or abi.encodeWithSelector\n*/\ncontract ERC20 {\n    function totalSupply() public constant returns (uint);\n    function balanceOf(address tokenOwner) public constant returns (uint balance);\n    function allowance(address tokenOwner, address spender) public constant returns (uint remaining);\n    function transfer(address to, uint tokens) public returns (bool success);\n    function approve(address spender, uint tokens) public returns (bool success);\n    function transferFrom(address from, address to, uint tokens) public returns (bool success);\n    event Transfer(address indexed from, address indexed to, uint tokens);\n    event Approval(address indexed tokenOwner, address indexed spender, uint tokens);\n}\n\n/*\n    Generic Receiver Contract\n*/\ncontract Receiver {\n\n    address public owner;\n\n    constructor() public {\n        /* \n            Deployer's address ( Factory in our case )\n            do not pass this as a constructor argument because \n            etherscan will have issues displaying our validated source code\n        */\n        owner = msg.sender;\n    }\n\n    function transfer(address newOwner) public {\n        require (msg.sender == owner);\n        owner = newOwner;\n    }\n\n    /*\n        @notice Send funds owned by this contract to another address\n        @param tracker  - ERC20 token tracker ( DAI / MKR / etc. )\n        @param amount   - Amount of tokens to send\n        @param receiver - Address we're sending these tokens to\n        @return true if transfer succeeded, false otherwise \n    */\n    function sendFundsTo( address tracker, uint256 amount, address receiver) public returns ( bool ) {\n        // callable only by the owner, not using modifiers to improve readability\n        require(msg.sender == owner);\n\n        // Transfer tokens from this address to the receiver\n        return ERC20(tracker).transfer(receiver, amount);\n    }\n\n    // depending on your system,  you probably want to suicide this at some\n    // point in the future, or reuse it for other clients\n}\n\n/*\n    Factory Contract\n*/\n\ncontract Factory {\n\n    address public owner;\n    mapping ( uint256 => address ) public receiversMap;\n    uint256 public receiverCount = 0;\n\n    constructor() public {\n        /* \n            Deployer's address ( Factory in our case )\n            do not pass this as a constructor argument because \n            etherscan will have issues displaying our validated source code\n        */\n        owner = msg.sender;\n    }\n    \n    function transfer(address newOwner) public {\n        require (msg.sender == owner);\n        owner = newOwner;\n    }\n\n    /*\n        @notice Create a number of receiver contracts\n        @param number  - 0-255 \n    */\n    function createReceivers( uint8 number ) public {\n        require(msg.sender == owner);\n\n        for(uint8 i = 0; i < number; i++) {\n            // Create and index our new receiver\n            receiversMap[++receiverCount] = new Receiver();\n        }\n        // add event here if you need it\n    }\n\n    /*\n        @notice Send funds in a receiver to another address\n        @param ID       - Receiver indexed ID\n        @param tracker  - ERC20 token tracker ( DAI / MKR / etc. )\n        @param amount   - Amount of tokens to send\n        @param receiver - Address we're sending tokens to\n        @return true if transfer succeeded, false otherwise \n    */\n    function sendFundsFromReceiverTo( uint256 ID, address tracker, uint256 amount, address receiver ) public returns (bool) {\n        require(msg.sender == owner);\n        return Receiver( receiversMap[ID] ).sendFundsTo( tracker, amount, receiver);\n    }\n\n    /*\n        Batch Collection - Should support a few hundred transansfers\n\n        @param tracker           - ERC20 token tracker ( DAI / MKR / etc. )\n        @param receiver          - Address we're sending tokens to\n        @param contractAddresses - we send an array of addresses instead of ids, so we don't need to read them ( lower gas cost )\n        @param amounts           - array of amounts \n\n    */\n    function batchCollect( address tracker, address receiver, address[] contractAddresses, uint256[] amounts ) public {\n        require(msg.sender == owner);\n\n        for(uint256 i = 0; i < contractAddresses.length; i++) {\n\n            // add exception handling\n            Receiver( contractAddresses[i] ).sendFundsTo( tracker, amounts[i], receiver);\n        }\n    }\n\n}",
  "sourcePath": "/Users/vigneshkarthikeyan/Stuff/Factory/contracts/Factory.sol",
  "compiler": {
    "name": "solc",
    "version": "0.4.25+commit.59dbf8f1.Emscripten.clang"
  },
  "schemaVersion": "3.0.15",
  "updatedAt": "2019-09-21T13:43:59.486Z",
  "devdoc": {
    "methods": {}
  },
  "userdoc": {
    "methods": {}
  }
}