{
  "contractName": "Receiver",
  "abi": [
    {
      "constant": true,
      "inputs": [],
      "name": "owner",
      "outputs": [
        {
          "name": "",
          "type": "address"
        }
      ],
      "payable": false,
      "stateMutability": "view",
      "type": "function"
    },
    {
      "inputs": [],
      "payable": false,
      "stateMutability": "nonpayable",
      "type": "constructor"
    },
    {
      "constant": false,
      "inputs": [
        {
          "name": "newOwner",
          "type": "address"
        }
      ],
      "name": "transferOwner",
      "outputs": [],
      "payable": false,
      "stateMutability": "nonpayable",
      "type": "function"
    },
    {
      "constant": false,
      "inputs": [
        {
          "name": "tracker",
          "type": "address"
        },
        {
          "name": "amount",
          "type": "uint256"
        },
        {
          "name": "receiver",
          "type": "address"
        }
      ],
      "name": "sendFundsTo",
      "outputs": [
        {
          "name": "",
          "type": "bool"
        }
      ],
      "payable": false,
      "stateMutability": "nonpayable",
      "type": "function"
    },
    {
      "constant": false,
      "inputs": [],
      "name": "killContract",
      "outputs": [],
      "payable": false,
      "stateMutability": "nonpayable",
      "type": "function"
    }
  ],
  "bytecode": "0x608060405234801561001057600080fd5b50336000806101000a81548173ffffffffffffffffffffffffffffffffffffffff021916908373ffffffffffffffffffffffffffffffffffffffff160217905550610415806100606000396000f3fe608060405234801561001057600080fd5b506004361061004c5760003560e01c80631c02708d146100515780634fb2e45d1461005b57806389d4e6cd1461009f5780638da5cb5b14610125575b600080fd5b61005961016f565b005b61009d6004803603602081101561007157600080fd5b81019080803573ffffffffffffffffffffffffffffffffffffffff169060200190929190505050610202565b005b61010b600480360360608110156100b557600080fd5b81019080803573ffffffffffffffffffffffffffffffffffffffff16906020019092919080359060200190929190803573ffffffffffffffffffffffffffffffffffffffff16906020019092919050505061029e565b604051808215151515815260200191505060405180910390f35b61012d6103c4565b604051808273ffffffffffffffffffffffffffffffffffffffff1673ffffffffffffffffffffffffffffffffffffffff16815260200191505060405180910390f35b6000809054906101000a900473ffffffffffffffffffffffffffffffffffffffff1673ffffffffffffffffffffffffffffffffffffffff163373ffffffffffffffffffffffffffffffffffffffff16146101c857600080fd5b6000809054906101000a900473ffffffffffffffffffffffffffffffffffffffff1673ffffffffffffffffffffffffffffffffffffffff16ff5b6000809054906101000a900473ffffffffffffffffffffffffffffffffffffffff1673ffffffffffffffffffffffffffffffffffffffff163373ffffffffffffffffffffffffffffffffffffffff161461025b57600080fd5b806000806101000a81548173ffffffffffffffffffffffffffffffffffffffff021916908373ffffffffffffffffffffffffffffffffffffffff16021790555050565b60008060009054906101000a900473ffffffffffffffffffffffffffffffffffffffff1673ffffffffffffffffffffffffffffffffffffffff163373ffffffffffffffffffffffffffffffffffffffff16146102f957600080fd5b8373ffffffffffffffffffffffffffffffffffffffff1663a9059cbb83856040518363ffffffff1660e01b8152600401808373ffffffffffffffffffffffffffffffffffffffff1673ffffffffffffffffffffffffffffffffffffffff16815260200182815260200192505050602060405180830381600087803b15801561038057600080fd5b505af1158015610394573d6000803e3d6000fd5b505050506040513d60208110156103aa57600080fd5b810190808051906020019092919050505090509392505050565b6000809054906101000a900473ffffffffffffffffffffffffffffffffffffffff168156fea165627a7a723058202f3bafd5f943a055dea152dc93933a0624fd3a2a3fa23275b566b7c332dea7830029",
  "source": "pragma solidity ^0.5.8;\n\n/*\n    Just the interface so solidity can compile properly\n    We could skip this if we use generic call creation or abi.encodeWithSelector\n*/\ncontract ERC20 {\n    function totalSupply() public view returns (uint);\n    function balanceOf(address tokenOwner) public view returns (uint balance);\n    function allowance(address tokenOwner, address spender) public view returns (uint remaining);\n    function transfer(address to, uint tokens) public returns (bool success);\n    function approve(address spender, uint tokens) public returns (bool success);\n    function transferFrom(address from, address to, uint tokens) public returns (bool success);\n    event Transfer(address indexed from, address indexed to, uint tokens);\n    event Approval(address indexed tokenOwner, address indexed spender, uint tokens);\n}\n\n/*\n    Generic Receiver Contract\n*/\ncontract Receiver {\n\n    address payable public owner;\n\n    constructor() public {\n        /* \n            Deployer's address ( Factory in our case )\n            do not pass this as a constructor argument because \n            etherscan will have issues displaying our validated source code\n        */\n        owner = msg.sender;\n    }\n\n    /*\n        @notice Transfer Ownership of this contract to another address\n        @param newOwner - Address of the next Owner of the contract\n    */\n    function transferOwner(address payable newOwner) public {\n        require (msg.sender == owner);\n        owner = newOwner;\n    }\n\n    /*\n        @notice Send funds owned by this contract to another address\n        @param tracker  - ERC20 token tracker ( DAI / MKR / etc. )\n        @param amount   - Amount of tokens to send\n        @param receiver - Address we're sending these tokens to\n        @return true if transfer succeeded, false otherwise \n    */\n    function sendFundsTo( address tracker, uint256 amount, address receiver) public returns ( bool ) {\n        // callable only by the owner, not using modifiers to improve readability\n        require(msg.sender == owner);\n\n        // Transfer tokens from this address to the receiver\n        return ERC20(tracker).transfer(receiver, amount);\n    }\n\n    /*\n        @notice Self destruct's contract\n    */\n    function killContract() public {\n        require(msg.sender == owner);\n        selfdestruct(owner);\n    }\n\n    /*\n        @notice payable to make the contract self-destructible\n    */\n    \n}\n\n/*\n    Factory Contract\n*/\n\ncontract Factory {\n\n    address public owner;\n    mapping ( uint256 => address ) public receiversMap;\n    uint256 public receiverCount = 0;\n\n    constructor() public {\n        /* \n            Deployer's address ( Factory in our case )\n            do not pass this as a constructor argument because \n            etherscan will have issues displaying our validated source code\n        */\n        owner = msg.sender;\n    }\n    \n    /*\n        @notice Transfer Ownership of this contract to another address\n        @param newOwner - Address of the next Owner of the contract\n    */\n    function transferOwner(address payable newOwner) public {\n        require (msg.sender == owner);\n        owner = newOwner;\n    }\n\n    /*\n        @notice Create a number of receiver contracts\n        @param number  - 0-255 \n    */\n    function createReceivers( uint8 number ) public {\n        require(msg.sender == owner);\n\n        for(uint8 i = 0; i < number; i++) {\n            // Create and index our new receiver\n            receiversMap[++receiverCount] = address(new Receiver());\n        }\n        // add event here if you need it\n    }\n\n    /*\n        @notice Send funds in a receiver to another address\n        @param ID       - Receiver indexed ID\n        @param tracker  - ERC20 token tracker ( DAI / MKR / etc. )\n        @param amount   - Amount of tokens to send\n        @param receiver - Address we're sending tokens to\n        @return true if transfer succeeded, false otherwise \n    */\n    function sendFundsFromReceiverTo( uint256 ID, address tracker, uint256 amount, address receiver ) public returns (bool) {\n        require(msg.sender == owner);\n        return Receiver( receiversMap[ID] ).sendFundsTo( tracker, amount, receiver);\n    }\n\n    /*\n        Batch Collection - Should support a few hundred transansfers\n\n        @param tracker           - ERC20 token tracker ( DAI / MKR / etc. )\n        @param receiver          - Address we're sending tokens to\n        @param contractAddresses - we send an array of addresses instead of ids, so we don't need to read them ( lower gas cost )\n        @param amounts           - array of amounts \n\n    */\n    function batchCollect( address tracker, address receiver, address[] memory contractAddresses, uint256[] memory amounts ) public {\n        require(msg.sender == owner);\n\n        for(uint256 i = 0; i < contractAddresses.length; i++) {\n\n            // add exception handling\n            Receiver( contractAddresses[i] ).sendFundsTo( tracker, amounts[i], receiver);\n        }\n    }\n}",
  "sourcePath": "/Users/vigneshkarthikeyan/Stuff/Factory/contracts/Factory.sol",
  "compiler": {
    "name": "solc",
    "version": "0.5.8+commit.23d335f2.Emscripten.clang"
  },
  "schemaVersion": "3.0.15",
  "updatedAt": "2019-09-25T11:57:55.880Z",
  "devdoc": {
    "methods": {}
  },
  "userdoc": {
    "methods": {}
  }
}